:100000000C9434000C9451000C9451000C94510049
:100010000C9451000C9451000C9451000C9451001C
:100020000C9451000C9451000C9451000C94DA0182
:100030000C9451000C9451000C9451000C945100FC
:100040000C9451000C9451000C9451000C945100EC
:100050000C9451000C9451000C9451000C945100DC
:100060000C9451000C94510011241FBECFEFD4E02A
:10007000DEBFCDBF11E0A0E0B1E0EAE9FFE002C0E1
:1000800005900D92AA3FB107D9F712E0AAEFB1E0AF
:1000900001C01D92A832B107E1F70E9454030C94ED
:1000A000CB070C94000085E084B982EE8AB980E326
:1000B00087B987B91092C50083E38093C40088E1B3
:1000C0008093C1008CEE91E09093250280932402EE
:1000D0001BB85E9A08950EC020E030E000000000DA
:1000E00000000000000000002F5F3F4F2A3531055F
:1000F000A9F70197009781F7089508952A980000BD
:100100005E98000020E030E02A9887FF02C05F9AE6
:1001100001C05F9800002A9A00002F5F3F4F2830EF
:10012000310511F0880FF0CF5E9A00002A98000088
:1001300008952A9800005E98000020E030E02A9898
:1001400087FF02C05F9A01C05F9800002A9A0000F2
:100150002F5F3F4F2830310511F0880FF0CF80E03E
:1001600090E02A9867FF02C05F9A01C05F98000084
:100170002A9A000001968830910511F0660FF1CFA0
:100180005E9A00002A9800000895892B19F08DE0EE
:1001900061EC02C08DE060EC0E949900089584E655
:1001A00090E00E946B005D9A8EE060E00E949900F2
:1001B0008FE060E00E94990081E063E00E94990076
:1001C00082E060E10E94990083E06FEF0E94990055
:1001D00084E06FEF0E94990088E060E00E9499003F
:1001E00089E060E00E9499008AE060E00E94990046
:1001F0008BE060E00E9499008DE061EC0E94990024
:100200008EE060E00E9499008FE060E00E9499001B
:1002100008951F93182F8A3019F48DE00E94090168
:100220008091C00085FFFCCF1093C60080E090E075
:100230001F9108958091C00087FFFCCF8091C60078
:10024000089520E030E0FC01E20FF31F10822F5FE1
:100250003F4F20323105B9F708950F931F93CF9385
:10026000DF938C0189E060E00E9499008AE060E001
:100270000E949900C0E0D0E0F801EC0FFD1F8081E2
:100280000E947E002196C032D105B1F7DF91CF9157
:100290001F910F910895CF93DF9389E060E00E9452
:1002A00099008AE060E00E949900C0E0D0E081E01F
:1002B0000E947E002196C032D105C9F7DF91CF910F
:1002C0000895DB01FA0180839C93089508950197B6
:1002D00061F483E190E090931F0280931E028FE00F
:1002E00090E0909321028093200208950F931F9332
:1002F000CF93DF93182F062FEA0180EA0E9446046D
:10030000812F0E947904813021F480E091E00E94E5
:10031000E204802F0E947904813021F48CE191E085
:100320000E94E20481EA0E946E040E949504888380
:100330000E947104DF91CF911F910F910895CF9288
:10034000DF92EF92FF920F931F93DF93CF930F9261
:10035000CDB7DEB78C01F62EE72E812F602FAE01D0
:100360004F5F5F4F0E94760182E069810E94990091
:1003700068010894C11CD11C2F2D3E2DC9017C01A0
:100380000F5D1F4F8D2D6C2DA7010E9476010894E3
:10039000C11CD11C0894E11CF11CC016D10691F7B8
:1003A0000F90CF91DF911F910F91FF90EF90DF9011
:1003B000CF9008951F920F920FB60F9211242F9392
:1003C0003F934F935F936F937F938F939F93AF93DD
:1003D000BF93EF93FF93609120027091210282E11D
:1003E0009AE70E949F04709389006093880080912F
:1003F000FB019091FC0101969093FC018093FB011D
:1004000020911E0230911F028217930724F0109250
:10041000FC011092FB012091FB013091FC01C9010C
:1004200045E0880F991F4A95E1F7820F931F0396C5
:100430006EEF71E00E949F018EEF91E00E942D010E
:10044000FF91EF91BF91AF919F918F917F916F91AC
:100450005F914F913F912F910F900FBE0F901F9082
:100460001895EF92FF920F931F93DF93CF9300D0D5
:10047000CDB7DEB78C0180E0602F7E010894E11CCF
:10048000F11CA7010E947601B8016F5F7F4F872F93
:10049000AE014E5F5F4F0E9476019A8180E0298114
:1004A000820F911D90931F0280931E020E5F1F4FBB
:1004B000812F602FA7010E947601898180932002FD
:1004C000109221020F900F90CF91DF911F910F9109
:1004D000FF90EF900895FF920F931F93182F062F10
:1004E000F42E80EA0E944604812F0E947904813014
:1004F00021F480E091E00E94E204802F0E947904C0
:10050000813021F48CE191E00E94E2048F2D0E9461
:100510007904813021F487E391E00E94E2040E9493
:1005200071041F910F91FF900895EF92FF920F9326
:100530001F93CF93DF937B018C01C0E0D0E0F701E4
:10054000EC0FFD1F812F602F40810E946B022196CE
:100550000F5F1F4FC032D10591F7DF91CF911F91EF
:100560000F91FF90EF900895CF92DF92EF92FF925C
:100570000F931F93DF93CF9300D000D00F92CDB78E
:10058000DEB7F89400D084E491E0EDB7FEB7928333
:1005900081830E94C60400E010E00F900F906E016E
:1005A0000894C11CD11C8091C00087FFFCCFF09043
:1005B000C600F601E00FF11FF0828F2D80538A30C4
:1005C00030F48F2D90E00E94DB040F5F1F4FFAE0A4
:1005D000FF1631F04DE0F41619F0053011051CF34B
:1005E000FE01E00FF11FCC24DD2421E030E018C033
:1005F000808190E0C097AC01249FC001259F900DA1
:10060000349F900D1124C80ED91EC901880F991F5F
:1006100053E0220F331F5A95E1F7280F391F319706
:10062000EC17FD0729F700D08AE591E0EDB7FEB79A
:10063000928381830E94C6040F900F9002C0809124
:10064000C6008091C00087FDFACFEE24FF2412C0BF
:100650008091C00087FFFCCF1091C6008EE290E031
:100660000E94DB048F2D6E2D412F0E946B02089497
:10067000E11CF11CEC14FD045CF38AE090E00E94A4
:10068000DB048CE691E00E94E20478940F900F90D6
:100690000F900F900F90CF91DF911F910F91FF90CE
:1006A000EF90DF90CF900895CF92DF92EF92FF927C
:1006B0000F931F93CF93DF9381E090E090932102FB
:1006C000809320021092FC011092FB0181E0809344
:1006D000FA011092FD010E9453000E94CF008BE7A7
:1006E00091E00E94E204109280008CE080938100EF
:1006F000609120027091210282E19AE70E949F049A
:10070000709389006093880082E080936F007894F2
:100710000E941A04EEEFF1E0119282E0EE31F80748
:10072000D9F780E090E00E943102EEEDEE2EE1E09C
:10073000FE2E09EB11E0C3ECD1E0CC24C39473E0AE
:10074000D72E8091C00087FF68C0F8948091C600C2
:10075000823769F40E94B40280E090E00E94310286
:1007600084E090E06EEF71E00E949F0155C08536F5
:10077000C1F48091FA01882349F01092FA018CE8C3
:1007800091E00E94E2048DE061EC08C0C092FA01A1
:100790008BE991E00E94E2048DE060EC0E949900F8
:1007A0003BC08337C9F58BEA91E00E94E204329B9B
:1007B0001BC000D0ADB7BEB712961C930E93119715
:1007C0000E94C6040F900F90339909C000D0EDB776
:1007D000FEB7D283C1830E94C6040F900F908AE0B7
:1007E00090E00E94DB0404C081ED91E00E94E204ED
:1007F00088B100D000D0EDB7FEB73196ADB7BEB727
:100800001296FC92EE921197828313820E94C60484
:100810000F900F900F900F90789488B18E7F11F009
:10082000D092FD018091FD01833011F4F89489CFBD
:10083000789487CF1092B9008CE08093B800089527
:10084000982F84EA8093BC008091BC0087FFFCCF86
:100850008091B900887F883021F0803111F081E0EB
:1008600008959093BB0084E88093BC008091BC0005
:1008700087FFFCCF9091B900987F983111F480E008
:10088000089580E0903409F081E00895982F44EABB
:1008900034E824E94093BC008091BC0087FFFCCF82
:1008A0008091B900887F883011F0803199F790935A
:1008B000BB003093BC008091BC0087FFFCCF8091CF
:1008C000B900887F803211F0883539F42093BC005C
:1008D0008091BC0084FDFCCFDDCF08950E942004F0
:1008E000089584E98093BC008091BC0084FDFCCF16
:1008F00008958093BB0084E88093BC008091BC0085
:1009000087FFFCCF8091B90090E0887F883209F0A2
:1009100091E0892F089584EC8093BC008091BC0005
:1009200087FFFCCF8091BB00089584E88093BC00D2
:100930008091BC0087FFFCCF8091BB00089597FB9E
:10094000092E07260AD077FD04D00CD006D000204F
:100950001AF4709561957F4F0895F6F790958195FB
:100960009F4F0895AA1BBB1B51E107C0AA1FBB1FC5
:10097000A617B70710F0A61BB70B881F991F5A952B
:10098000A9F780959095BC01CD010895A0E0B0E055
:10099000ECECF4E00C94A407FE01359661917191A2
:1009A0008091240290912502AF010E9417052096A4
:1009B000E2E00C94C00760912402709125020E942D
:1009C0000A0708950F931F93CF93DF938C01E09153
:1009D0002402F0912502838181FF21C0C0E0D0E094
:1009E0000DC0E0912402F091250220853185BF01E0
:1009F000F9010995892B11F0CFEFDFEFF801819113
:100A00008F01882371F7E0912402F091250220855F
:100A100031858AE0BF01F9010995892B11F0CFEFEB
:100A2000DFEFCE01DF91CF911F910F910895ABE0E1
:100A3000B0E0EDE1F5E00C9494073C012B015A0184
:100A4000FC0117821682838181FD03C06FEF7FEF67
:100A5000C6C19AE0892E1E010894211C311CF301A5
:100A60002381F20123FD859123FF81912F018823AA
:100A700009F4B2C1853239F423FD859123FF8191B8
:100A80002F01853229F490E0B3010E940A07E7CFD5
:100A9000982FFF24EE249924FFE1FF15D0F09B321C
:100AA00069F09C3228F4903259F0933291F40EC0E0
:100AB0009D3249F0903369F441E024C052E0F52AB8
:100AC00084E0F82A28C098E0F92A25C0E0E1FE2A4F
:100AD00022C0F7FC29C0892F80538A3070F4F6FEBB
:100AE00005C0989C902C1124980E15C0E89CE02C11
:100AF0001124E80EF0E2FF2A0EC09E3229F4F6FC23
:100B00006BC140E4F42A07C09C3619F450E8F52A7A
:100B100002C0983649F4F20123FD959123FF91918B
:100B20002F01992309F0B8CF892F8554833018F00D
:100B30008052833038F444E050E0A40EB51E5FE3E9
:100B400059830FC0933631F0933779F0933509F01C
:100B500056C020C0F5018081898342E050E0A40E98
:100B6000B51E610101E010E012C0F501C080D18026
:100B7000F6FC03C06FEF7FEF02C0692D70E042E02A
:100B800050E0A40EB51EC6010E94FF068C015FE76F
:100B9000F52214C0F501C080D180F6FC03C06FEFD0
:100BA0007FEF02C0692D70E042E050E0A40EB51E58
:100BB000C6010E94F4068C0150E8F52AF3FE07C036
:100BC0001AC080E290E0B3010E940A07EA948E2DD9
:100BD00090E008171907A8F30EC0F601F7FC8591FD
:100BE000F7FE81916F0190E0B3010E940A07E110C6
:100BF000EA94015010400115110579F7EAC09436C6
:100C000011F0993669F5F7FE08C0F50120813181B0
:100C10004281538184E090E00AC0F5018081918196
:100C20009C01442737FD4095542F82E090E0A80EA8
:100C3000B91E9FE6F92257FF09C05095409530959F
:100C400021953F4F4F4F5F4FE0E8FE2ACA01B9019F
:100C5000A1012AE030E00E943607D82ED21840C009
:100C6000953729F41F2D1F7E2AE030E01DC01F2D6F
:100C7000197F9F3661F0903720F4983509F0ACC0A9
:100C80000FC0903739F0983709F0A6C004C028E0AB
:100C900030E00AC0106114FD146020E130E004C0AF
:100CA00014FD166020E132E017FF08C0F5016081F5
:100CB00071818281938144E050E008C0F501808118
:100CC0009181BC0180E090E042E050E0A40EB51EAE
:100CD000A1010E943607D82ED2188FE7F82EF122F4
:100CE000F6FE0BC05EEFF522D91438F4F4FE07C00F
:100CF000F2FC05C08FEEF82202C01D2D01C0192D97
:100D0000F4FE0DC0FE01ED0DF11D8081803319F45C
:100D100099EEF92208C01F5FF2FE05C003C08F2DB7
:100D2000867809F01F5F0F2DF3FC14C0F0FE0FC092
:100D30001E1510F09D2C0BC09D2C9E0C911A1E2D83
:100D400006C080E290E0B3010E940A071F5F1E15F3
:100D5000C0F304C01E1510F4E11A01C0EE2404FF14
:100D60000FC080E390E0B3010E940A0702FF1DC09C
:100D700001FD03C088E790E00EC088E590E00BC05D
:100D8000802F867891F001FF02C08BE201C080E2E3
:100D9000F7FC8DE290E0B3010E940A0706C080E3F1
:100DA00090E0B3010E940A079A94D914C0F3DA9430
:100DB000F101ED0DF11D808190E0B3010E940A0761
:100DC000DD20A9F706C080E290E0B3010E940A0787
:100DD000EA94EE20C1F743CEF30166817781CB011F
:100DE0002B96E2E10C94B007FC0105906150704035
:100DF0000110D8F7809590958E0F9F1F0895FC01E4
:100E00006150704001900110D8F7809590958E0F39
:100E10009F1F08950F931F93CF93DF938C01EB01D6
:100E20008B8181FF1BC082FF0DC02E813F818C8191
:100E30009D812817390764F4E881F9810193F983CA
:100E4000E88306C0E885F985802F0995892B31F460
:100E50008E819F8101969F838E8302C00FEF1FEFCB
:100E6000C801DF91CF911F910F910895FA01AA2730
:100E7000283051F1203181F1E8946F936E7F6E5FDD
:100E80007F4F8F4F9F4FAF4FB1E03ED0B4E03CD08B
:100E9000670F781F891F9A1FA11D680F791F8A1F6E
:100EA000911DA11D6A0F711D811D911DA11D20D0D5
:100EB00009F468943F912AE0269F11243019305D8F
:100EC0003193DEF6CF010895462F4770405D419380
:100ED000B3E00FD0C9F7F6CF462F4F70405D4A33CD
:100EE00018F0495D31FD4052419302D0A9F7EACF95
:100EF000B4E0A6959795879577956795BA95C9F7C4
:100F000000976105710508959B01AC010A2E0694B6
:100F10005795479537952795BA95C9F7620F731F6F
:100F2000841F951FA01D08952F923F924F925F92AC
:100F30006F927F928F929F92AF92BF92CF92DF92E9
:100F4000EF92FF920F931F93CF93DF93CDB7DEB74E
:100F5000CA1BDB0B0FB6F894DEBF0FBECDBF0994E2
:100F60002A88398848885F846E847D848C849B8439
:100F7000AA84B984C884DF80EE80FD800C811B8147
:100F8000AA81B981CE0FD11D0FB6F894DEBF0FBE76
:0A0F9000CDBFED010895F894FFCFE6
:100F9A006164647265737320777269746520286866
:100FAA0069676829206661696C65640061646472B6
:100FBA0065737320777269746520286C6F772920AE
:100FCA006661696C65640077726974652066616937
:100FDA006C65640046696C65206C656E6774682090
:100FEA00286279746573293F20000A576169746918
:100FFA006E6720666F722066696C650046696C656B
:10100A002072656365697665642E0048656C6C6F4D
:10101A002C20417765736F6D65212100456E6162F1
:10102A006C6520646973706C6179004469736162EC
:10103A006C6520646973706C6179004465766963D4
:10104A00652073746174757300436F6E6E656374A3
:10105A0065640020616E64206368617267696E6707
:10106A0000446973636F6E6E656374656400504F04
:10107A00525443203D2025780A00127A00000002CB
:0A108A000000000009010000000052
:00000001FF
