:100000000C941C040C9439040C9439040C94390499
:100010000C9439040C9439040C9439040C9439046C
:100020000C9439040C9439040C9439040C9439045C
:100030000C9439040C94D8040C9439040C943904AD
:100040000C943B040C9439040C9439040C9439043A
:100050000C9439040C9439040C9439040C9439042C
:100060000C9439040C9439040C9439040C9439041C
:100070000C9439040C9439040C943904506FC1F970
:100080001F56395E76DD756C35F57743B7FEEF00A8
:10009000F800E003C003C00BD02FC0FDC1503F806B
:1000A000E52F5BB55ED5EBD9DBD75EE5BBA6F4EFFC
:1000B00040B900C003804340434007C01DC050BE4C
:1000C00040D52F6FF59BD9E7667767E7679BDBE045
:1000D000DB00F902C003008100C100C10200005032
:1000E000F901963F7EE59B99E77736A7369BB65A8E
:1000F00080AB00F90B400300C000E002A003C00386
:1001000050E5035F7FBCE59B56F7A739DB29DD2966
:10011000DC006F01F80B4002008001E04370437087
:100120000750960B7FBDBCE59B66F6DB39DD0D9C69
:100130001D9C006D0BF40B0002008003F007740A95
:10014000700B506F1EF8B9BD955B5AF69E3DAC29F9
:10015000683A6901782FE00B0001008007F00E700B
:100160000D700F50BE39E0E6BD959B5EF56A39749F
:100170003670377E1FE0BDC00B000100800FB01D40
:10018000D01DD01F50E0E6E0DB6E55977FF576B5C9
:10019000B0E7A0A7AE7EC0BD0107000000D02FC011
:1001A00035C039C23B5040DBF46F6F5595BFE5D188
:1001B000DAC0DFC0DBFFE5027E0006000004C03FBE
:1001C000407741AF436750406EFAAB5E55E5FFDDC7
:1001D00082AF43AF479EFFE50B2F00000000690090
:1001E000EB08DB0FFF07D25091BFBF96556A95FF12
:1001F0007E07770B712B6DEBFF3B0400000000BE08
:10020000049C1E9C1FFC0B4050FFFF655556FF7958
:100210009EAF0DD20DA0BD7E96BA55000000001015
:10022000FC3C743B743AE41F0050EAAA5A55A5FD01
:10023000EE29C736C036C0F9BA550000000000A448
:1002400074F0EEB0D7E0B5402F0050555596F9FD4B
:10025000B60BB701A740E7F0967F69000000009059
:10026000D0FDC19FC2E5C27A000F00505669F9E780
:100270002FDB02DC00DDE0DF78555FF60000408018
:10028000F8435B07BE07B9000F00010050E5DB7EB5
:100290009D03682074D07FB8555E9ED7E70041F477
:1002A000076F0DBE0EF9061E000300408050FE6E63
:1002B000077010A0F0BFF8965E69D76FF5DBE00B12
:1002C0006F2DF63AE92B2E000300000A9000500B28
:1002D000E000C0E0FEF8AA5F55D7FFB97CFD5BBE29
:1002E00039E6B675FF2E000300002AD01F500150DA
:1002F0000140C06BF8EB5F55E6FFB9C01EB8F96F5F
:1003000097D5F6FF2E0003000069E0BBF82F4001EF
:1003100050416AF8EA5F55E6FF7D000B407EF4E548
:100320006FE7FF2F0002000069E0EB6CE5F47F004F
:100330000150FDEA5B55E5FA7E1F07000F04FDFF43
:10034000E6951F0001000060F4FA6D5ABCFFE091D1
:100350000000505B55F5D9EEE6033F0715DEFFB907
:1003600095577F00004040F8C0DFFB9DBFB880106C
:1003700000000050F996CF9643D703BEFBFB7D5596
:10038000957F9BBF9000FD00DB40EEEB7C8004007E
:10039000000901005087768367839BF7EA5E59D591
:1003A000BFE6D656FEEF00D700FA022D400400004B
:1003B0001E80BF00005043F7E3A7BF559B6AF5FAC4
:1003C00079C0E5475DFEDB10FE0009000000802FCC
:1003D000E0F640FF001050F7F76F95D75FB9F91DB1
:1003E000807900E70B5FFE6ED002000000E06F74C2
:1003F000F5D09A40FE0050505B55F5A72E5E0EF8E2
:100400002D41F50FD70E5EFE01004001F4036C1E76
:10041000B0FFD06800B8039050FDB70BE7075E4E01
:10042000FAED5EB529D70E5EFEE000FD425C03ECFE
:100430001F30F4107001B407E450437703E7D75F2F
:10044000BEBD7DB67539E71F5EBEDEC0DD42BC02B3
:100450001C1000E000B0007803F4504377F7E76F1A
:1004600099DEB7DDF76939E71F5F6FFAD02E800894
:1004700000000000C000E0007803F850BF365BE5E4
:10048000E797776BD5F75939E60F9B1F0BD002C062
:100490008101C003004000E0407D02FD50E7E6B965
:1004A000D729D7795BE6E65D79F60FDB0700C0E078
:1004B00040F002E003000000E0407E01BE50DDD9C4
:1004C000CE964E97BD5BE6A659FDF90BE702B40048
:1004D000EC00EC00F003000000E060BE405F50C3A1
:1004E0006DC369C766AED7A5665AFEFD0BF6007AE6
:1004F00000BA00ED00F40100000060A0FEC05750FB
:10050000A07DD07DC369EF96A9565BBEFEDB3900A6
:10051000371837147F00F80000000000A8FFE056ED
:100520005070BAB07EA17DEF99A9E5565EFFFB1E23
:1005300040293C3A2C3B047D0000000000A96FB428
:10054000E65074D374B7707ABB5DB9E55696FFAFC9
:100550000BE00D3D0D3D1F0C3E00004000009B07D1
:10056000BCFE50ACC3ACE36C777B5FBED555F5FFEA
:100570005B02FD0EAB0E370E1E0F0400000040564E
:1005800001FF1F50DDC1DDC0DDB19E6F6FD655F993
:10059000FFE5945B43E74377032F0707000000D094
:1005A0000100FF0150E7C1A7B0A7E0EB7DDF9B553D
:1005B000F56BFDE99682B7C235C239830B010000A5
:1005C0008000E07F0050E7E37670367437B8F75F5D
:1005D00099E5967E7FF900BFE01EA00DD01FC101F6
:1005E000004000E00F505095F7FD6D0D9C1D6C69AB
:1005F0006FF69655F99F5F00BDE00F740A700EF01C
:1006000007000000D001FD5055FEFEAF1A5B0A5BEB
:100610000EADFD5B55E5A67F00F84007FC035C03CB
:10062000AC0BA401004000F45069BD96EFFF678356
:10063000770357977FFE9655F900F00001EB00EB2A
:1006400010DA01FD07000000C050FFB555E9FF5565
:10065000E97DC069C197FF6F69D514C000400000F3
:100660003F107700EB00BE01000050D7D7BEF55514
:10067000957F7E707EB099D0AAFF5BFF410080001D
:100680000016081E0C3900BF00550050005DFFD752
:1006900069D5565F9F7B6C6F74D5E6BFD607BE00E9
:1006A000000000040B0F0E051D007F00500075F0C8
:1006B0006F6FD555959AAFDBAD9DDB6CE5E51F7F80
:1006C00004090000000008830F03000E805010C0D2
:1006D000F8BF5E65D79B5595E69FF7DF9BD6FE7BFF
:1006E0006E290300010000000008C003024050FF13
:1006F00001FCCF5BF9E666F99B55D5E9DFF9DB87AD
:10070000DB6FFD02200000600000000004904150FB
:10071000560FFF0B5B7EF5F6AE9BFF5B55D5AADB54
:10072000006C47AE00F00040F802A80000400080D6
:1007300050FD39561E561EB939EFE7039BFF5B5536
:10074000D510B00074007400D0FCC0AB03A9010048
:1007500000504BE7FD76553DAA39EB7600E700DB0C
:10076000FF6BFCC250C000B000B0BEC0D7C29B43FC
:10077000FE0250029CFFDE95D76575AB36F9B700D7
:10078000E700E7BF0AE603008000D001D0FFC1996F
:10079000C29AC2500070FF70956F6F9DA9E55B769D
:1007A000FEA704A7FF1DE51F000D0000008000C08C
:1007B000AFC1AFC25091D0FFD095E76F7EFF69F90E
:1007C000D656F5FFB7FF36A437003E00283D00009F
:1007D0000000C017C15095C0BF4395876FCEF4E9A4
:1007E000C7B6FE5755E5FFF720DB00DE01F83F7086
:1007F000FE10900000405096C1BE07550E6F0EF4DB
:100800002DC0B643F7BE77FFFB10DD005C06783ED7
:10081000F0F6E0EF40F401505BC1FA0F561D5F2D7A
:10082000782DE036417703F7FFFB10EC007007707E
:100830000E70B9E0D7C0DDC111241FBECFEFD0E1EB
:10084000DEBFCDBF11E0A0E0B1E0E6EBFDE002C00D
:1008500005900D92A430B107D9F711E0A4E0B1E002
:1008600001C01D92A334B107E1F70E9461050C9409
:10087000DA060C9400001F920F920FB60F9211240B
:100880002F933F934F935F936F937F938F939F9398
:10089000AF93BF93EF93FF93CF93DF93CDB7DEB7C3
:1008A00080913B0190913C018830910571F480E08A
:1008B0000E942F0680E00E94510680E00E946A0696
:1008C000E7E4F0E088E5808335C080E00E945106CF
:1008D00080E00E946A06E7E4F0E0809137019091A1
:1008E00038019C012F5F3F4F84E690E0AC01249FCC
:1008F000C001259F900D349F900D1124808320917D
:100900003B0130913C0181E090E002C0880F991FCB
:100910002A95E2F70E942F0620913F013091400175
:1009200080913B0190913C01F901E80FF91F808112
:100930000E94510680913701909138010196909361
:100940003801809337018091370190913801181652
:100950001906DCF4109238011092370181E080937F
:10096000360180913B0190913C01019690933C01AE
:1009700080933B0180913B0190913C01883091052F
:1009800024F010923C0110923B01DF91CF91FF9136
:10099000EF91BF91AF919F918F917F916F915F91F7
:1009A0004F913F912F910F900FBE0F901F90189570
:1009B0001F920F920FB60F9211242F933F934F93D4
:1009C0005F936F937F938F939F93AF93BF93EF93B7
:1009D000FF93CF93DF93CDB7DEB72197DEBFCDBFB7
:1009E0008091340190913501019690933501809367
:1009F00034012091340130913501809100019091B2
:100A000001012817390724F01092350110923401A2
:100A100080913F0190914001209134013091350146
:100A2000BC01C9010E946D058FE789838981282F48
:100A300030E084E690E0AC01249FC001259F900D3A
:100A4000349F900D11242FEF30E0B9010E94B306BE
:100A5000CB0190933E0180933D018981282F30E0A6
:100A60008FEF90E0AC01421B530B9A0188E592E0B6
:100A7000AC01249FC001259F900D349F900D11243F
:100A80002FEF30E0B9010E94B306CB0190933A01F9
:100A9000809339012196F894DEBFCDBFDF91CF91CD
:100AA000FF91EF91BF91AF919F918F917F916F9146
:100AB0005F914F913F912F910F900FBE0F901F901C
:100AC0001895CF93DF93CDB7DEB70E94B5050E948E
:100AD00007060E94D8057894FFCFCF93DF93CDB758
:100AE000DEB726970FB6F894DEBF0FBECDBF9C834E
:100AF0008B837E836D831A8218C08A81882F90E051
:100B00009C018D819E81F901E80FF91F8A81282FB0
:100B100030E081E090E0022E02C0880F991F0A9415
:100B2000E2F780838A818F5F8A838A81883028F305
:100B30001A820FC08A81882F90E09C018D819E814E
:100B4000F901E80FF91F8081898300008A818F5F96
:100B50008A838A81883070F326960FB6F894DEBFB8
:100B60000FBECDBFDF91CF910895CF93DF93CDB767
:100B7000DEB7E1E2F0E08FEF8083E4E2F0E08FEFB8
:100B80008083E7E2F0E08FEF8083EAE2F0E08FEF2E
:100B90008083E2E2F0E01082E5E2F0E01082E8E239
:100BA000F0E01082EBE2F0E01082DF91CF91089547
:100BB000CF93DF93CDB7DEB7E4E4F0E01082E5E455
:100BC000F0E08AE08083E7E4F0E084E68083EEE60C
:100BD000F0E082E08083E0E8F0E01082E1E8F0E01D
:100BE0008CE08083E8E8F0E020910201309103017D
:100BF00082E19AE7B9010E94B306CB019183808319
:100C0000EFE6F0E082E08083DF91CF910895CF930B
:100C1000DF93CDB7DEB710923C0110923B011092EA
:100C200038011092370181E080933601109235012E
:100C30001092340184E091E09093400180933F0151
:100C400080913F0190914001209134013091350114
:100C5000BC01C9010E946D05DF91CF910895CF932A
:100C6000DF93CDB7DEB721970FB6F894DEBF0FBE86
:100C7000CDBF8983E8E2F0E08981282F30E081E070
:100C800090E002C0880F991F2A95E2F78095808333
:100C900021960FB6F894DEBF0FBECDBFDF91CF9186
:100CA0000895CF93DF93CDB7DEB721970FB6F894B1
:100CB000DEBF0FBECDBF8983E2E2F0E0898180957F
:100CC000808321960FB6F894DEBF0FBECDBFDF91B3
:100CD000CF910895CF93DF93CDB7DEB721970FB6AD
:100CE000F894DEBF0FBECDBF8983EBE2F0E08981CF
:100CF0008095808321960FB6F894DEBF0FBECDBFDE
:100D0000DF91CF910895CF93DF93CDB7DEB72497CE
:100D10000FB6F894DEBF0FBECDBF9C838B8316C089
:100D20001A820CC0198204C0000089818F5F8983F8
:100D300089818630C8F38A818F5F8A838A818A3568
:100D400088F38B819C8101979C838B838B819C8111
:100D5000009731F724960FB6F894DEBF0FBECDBFD3
:100D6000DF91CF91089597FB092E07260AD077FDD2
:100D700004D00CD006D000201AF4709561957F4FF6
:100D80000895F6F7909581959F4F0895AA1BBB1B78
:100D900051E107C0AA1FBB1FA617B70710F0A61B7B
:100DA000B70B881F991F5A95A9F780959095BC019C
:060DB000CD010895FFCF04
:040DB6003C000F00EE
:00000001FF
